{
  "_format": "hh-sol-artifact-1",
  "contractName": "TestToken",
  "sourceName": "contracts/Token.sol",
  "abi": [
    {
      "inputs": [
        {
          "internalType": "uint256",
          "name": "initialSupply",
          "type": "uint256"
        }
      ],
      "stateMutability": "nonpayable",
      "type": "constructor"
    },
    {
      "anonymous": false,
      "inputs": [
        {
          "indexed": true,
          "internalType": "address",
          "name": "owner",
          "type": "address"
        },
        {
          "indexed": true,
          "internalType": "address",
          "name": "spender",
          "type": "address"
        },
        {
          "indexed": false,
          "internalType": "uint256",
          "name": "value",
          "type": "uint256"
        }
      ],
      "name": "Approval",
      "type": "event"
    },
    {
      "anonymous": false,
      "inputs": [
        {
          "indexed": true,
          "internalType": "bytes32",
          "name": "role",
          "type": "bytes32"
        },
        {
          "indexed": true,
          "internalType": "bytes32",
          "name": "previousAdminRole",
          "type": "bytes32"
        },
        {
          "indexed": true,
          "internalType": "bytes32",
          "name": "newAdminRole",
          "type": "bytes32"
        }
      ],
      "name": "RoleAdminChanged",
      "type": "event"
    },
    {
      "anonymous": false,
      "inputs": [
        {
          "indexed": true,
          "internalType": "bytes32",
          "name": "role",
          "type": "bytes32"
        },
        {
          "indexed": true,
          "internalType": "address",
          "name": "account",
          "type": "address"
        },
        {
          "indexed": true,
          "internalType": "address",
          "name": "sender",
          "type": "address"
        }
      ],
      "name": "RoleGranted",
      "type": "event"
    },
    {
      "anonymous": false,
      "inputs": [
        {
          "indexed": true,
          "internalType": "bytes32",
          "name": "role",
          "type": "bytes32"
        },
        {
          "indexed": true,
          "internalType": "address",
          "name": "account",
          "type": "address"
        },
        {
          "indexed": true,
          "internalType": "address",
          "name": "sender",
          "type": "address"
        }
      ],
      "name": "RoleRevoked",
      "type": "event"
    },
    {
      "anonymous": false,
      "inputs": [
        {
          "indexed": true,
          "internalType": "address",
          "name": "from",
          "type": "address"
        },
        {
          "indexed": true,
          "internalType": "address",
          "name": "to",
          "type": "address"
        },
        {
          "indexed": false,
          "internalType": "uint256",
          "name": "value",
          "type": "uint256"
        }
      ],
      "name": "Transfer",
      "type": "event"
    },
    {
      "inputs": [],
      "name": "DEFAULT_ADMIN_ROLE",
      "outputs": [
        {
          "internalType": "bytes32",
          "name": "",
          "type": "bytes32"
        }
      ],
      "stateMutability": "view",
      "type": "function"
    },
    {
      "inputs": [
        {
          "internalType": "address",
          "name": "owner",
          "type": "address"
        },
        {
          "internalType": "address",
          "name": "spender",
          "type": "address"
        }
      ],
      "name": "allowance",
      "outputs": [
        {
          "internalType": "uint256",
          "name": "",
          "type": "uint256"
        }
      ],
      "stateMutability": "view",
      "type": "function"
    },
    {
      "inputs": [
        {
          "internalType": "address",
          "name": "spender",
          "type": "address"
        },
        {
          "internalType": "uint256",
          "name": "amount",
          "type": "uint256"
        }
      ],
      "name": "approve",
      "outputs": [
        {
          "internalType": "bool",
          "name": "",
          "type": "bool"
        }
      ],
      "stateMutability": "nonpayable",
      "type": "function"
    },
    {
      "inputs": [
        {
          "internalType": "address",
          "name": "account",
          "type": "address"
        }
      ],
      "name": "balanceOf",
      "outputs": [
        {
          "internalType": "uint256",
          "name": "",
          "type": "uint256"
        }
      ],
      "stateMutability": "view",
      "type": "function"
    },
    {
      "inputs": [
        {
          "internalType": "address",
          "name": "from",
          "type": "address"
        },
        {
          "internalType": "uint256",
          "name": "amount",
          "type": "uint256"
        }
      ],
      "name": "burn",
      "outputs": [],
      "stateMutability": "nonpayable",
      "type": "function"
    },
    {
      "inputs": [],
      "name": "decimals",
      "outputs": [
        {
          "internalType": "uint8",
          "name": "",
          "type": "uint8"
        }
      ],
      "stateMutability": "view",
      "type": "function"
    },
    {
      "inputs": [
        {
          "internalType": "address",
          "name": "spender",
          "type": "address"
        },
        {
          "internalType": "uint256",
          "name": "subtractedValue",
          "type": "uint256"
        }
      ],
      "name": "decreaseAllowance",
      "outputs": [
        {
          "internalType": "bool",
          "name": "",
          "type": "bool"
        }
      ],
      "stateMutability": "nonpayable",
      "type": "function"
    },
    {
      "inputs": [
        {
          "internalType": "bytes32",
          "name": "role",
          "type": "bytes32"
        }
      ],
      "name": "getRoleAdmin",
      "outputs": [
        {
          "internalType": "bytes32",
          "name": "",
          "type": "bytes32"
        }
      ],
      "stateMutability": "view",
      "type": "function"
    },
    {
      "inputs": [
        {
          "internalType": "bytes32",
          "name": "role",
          "type": "bytes32"
        },
        {
          "internalType": "address",
          "name": "account",
          "type": "address"
        }
      ],
      "name": "grantRole",
      "outputs": [],
      "stateMutability": "nonpayable",
      "type": "function"
    },
    {
      "inputs": [
        {
          "internalType": "bytes32",
          "name": "role",
          "type": "bytes32"
        },
        {
          "internalType": "address",
          "name": "account",
          "type": "address"
        }
      ],
      "name": "hasRole",
      "outputs": [
        {
          "internalType": "bool",
          "name": "",
          "type": "bool"
        }
      ],
      "stateMutability": "view",
      "type": "function"
    },
    {
      "inputs": [
        {
          "internalType": "address",
          "name": "spender",
          "type": "address"
        },
        {
          "internalType": "uint256",
          "name": "addedValue",
          "type": "uint256"
        }
      ],
      "name": "increaseAllowance",
      "outputs": [
        {
          "internalType": "bool",
          "name": "",
          "type": "bool"
        }
      ],
      "stateMutability": "nonpayable",
      "type": "function"
    },
    {
      "inputs": [
        {
          "internalType": "address",
          "name": "to",
          "type": "address"
        },
        {
          "internalType": "uint256",
          "name": "amount",
          "type": "uint256"
        }
      ],
      "name": "mint",
      "outputs": [],
      "stateMutability": "nonpayable",
      "type": "function"
    },
    {
      "inputs": [],
      "name": "name",
      "outputs": [
        {
          "internalType": "string",
          "name": "",
          "type": "string"
        }
      ],
      "stateMutability": "view",
      "type": "function"
    },
    {
      "inputs": [],
      "name": "owner",
      "outputs": [
        {
          "internalType": "address",
          "name": "",
          "type": "address"
        }
      ],
      "stateMutability": "view",
      "type": "function"
    },
    {
      "inputs": [
        {
          "internalType": "bytes32",
          "name": "role",
          "type": "bytes32"
        },
        {
          "internalType": "address",
          "name": "account",
          "type": "address"
        }
      ],
      "name": "renounceRole",
      "outputs": [],
      "stateMutability": "nonpayable",
      "type": "function"
    },
    {
      "inputs": [
        {
          "internalType": "bytes32",
          "name": "role",
          "type": "bytes32"
        },
        {
          "internalType": "address",
          "name": "account",
          "type": "address"
        }
      ],
      "name": "revokeRole",
      "outputs": [],
      "stateMutability": "nonpayable",
      "type": "function"
    },
    {
      "inputs": [
        {
          "internalType": "bytes4",
          "name": "interfaceId",
          "type": "bytes4"
        }
      ],
      "name": "supportsInterface",
      "outputs": [
        {
          "internalType": "bool",
          "name": "",
          "type": "bool"
        }
      ],
      "stateMutability": "view",
      "type": "function"
    },
    {
      "inputs": [],
      "name": "symbol",
      "outputs": [
        {
          "internalType": "string",
          "name": "",
          "type": "string"
        }
      ],
      "stateMutability": "view",
      "type": "function"
    },
    {
      "inputs": [],
      "name": "totalSupply",
      "outputs": [
        {
          "internalType": "uint256",
          "name": "",
          "type": "uint256"
        }
      ],
      "stateMutability": "view",
      "type": "function"
    },
    {
      "inputs": [
        {
          "internalType": "address",
          "name": "to",
          "type": "address"
        },
        {
          "internalType": "uint256",
          "name": "amount",
          "type": "uint256"
        }
      ],
      "name": "transfer",
      "outputs": [
        {
          "internalType": "bool",
          "name": "",
          "type": "bool"
        }
      ],
      "stateMutability": "nonpayable",
      "type": "function"
    },
    {
      "inputs": [
        {
          "internalType": "address",
          "name": "from",
          "type": "address"
        },
        {
          "internalType": "address",
          "name": "to",
          "type": "address"
        },
        {
          "internalType": "uint256",
          "name": "amount",
          "type": "uint256"
        }
      ],
      "name": "transferFrom",
      "outputs": [
        {
          "internalType": "bool",
          "name": "",
          "type": "bool"
        }
      ],
      "stateMutability": "nonpayable",
      "type": "function"
    }
  ],
  "bytecode": "0x60806040523480156200001157600080fd5b5060405162002ccb38038062002ccb833981810160405281019062000037919062000529565b6040518060400160405280600681526020017f546f6b656e5900000000000000000000000000000000000000000000000000008152506040518060400160405280600381526020017f544b5900000000000000000000000000000000000000000000000000000000008152508160039080519060200190620000bb92919062000439565b508060049080519060200190620000d492919062000439565b505050620000ec6000801b336200014660201b60201c565b620000fe33826200015c60201b60201c565b33600660006101000a81548173ffffffffffffffffffffffffffffffffffffffff021916908373ffffffffffffffffffffffffffffffffffffffff16021790555050620006fd565b620001588282620002ca60201b60201c565b5050565b600073ffffffffffffffffffffffffffffffffffffffff168273ffffffffffffffffffffffffffffffffffffffff161415620001cf576040517f08c379a0000000000000000000000000000000000000000000000000000000008152600401620001c690620005bc565b60405180910390fd5b620001e360008383620003bc60201b60201c565b8060026000828254620001f791906200060d565b92505081905550806000808473ffffffffffffffffffffffffffffffffffffffff1673ffffffffffffffffffffffffffffffffffffffff168152602001908152602001600020600082825401925050819055508173ffffffffffffffffffffffffffffffffffffffff16600073ffffffffffffffffffffffffffffffffffffffff167fddf252ad1be2c89b69c2b068fc378daa952ba7f163c4a11628f55a4df523b3ef83604051620002aa91906200067b565b60405180910390a3620002c660008383620003c160201b60201c565b5050565b620002dc8282620003c660201b60201c565b620003b85760016005600084815260200190815260200160002060000160008373ffffffffffffffffffffffffffffffffffffffff1673ffffffffffffffffffffffffffffffffffffffff16815260200190815260200160002060006101000a81548160ff0219169083151502179055506200035d6200043160201b60201c565b73ffffffffffffffffffffffffffffffffffffffff168173ffffffffffffffffffffffffffffffffffffffff16837f2f8788117e7eff1d82e926ec794901d17c78024a50270940304540a733656f0d60405160405180910390a45b5050565b505050565b505050565b60006005600084815260200190815260200160002060000160008373ffffffffffffffffffffffffffffffffffffffff1673ffffffffffffffffffffffffffffffffffffffff16815260200190815260200160002060009054906101000a900460ff16905092915050565b600033905090565b8280546200044790620006c7565b90600052602060002090601f0160209004810192826200046b5760008555620004b7565b82601f106200048657805160ff1916838001178555620004b7565b82800160010185558215620004b7579182015b82811115620004b657825182559160200191906001019062000499565b5b509050620004c69190620004ca565b5090565b5b80821115620004e5576000816000905550600101620004cb565b5090565b600080fd5b6000819050919050565b6200050381620004ee565b81146200050f57600080fd5b50565b6000815190506200052381620004f8565b92915050565b600060208284031215620005425762000541620004e9565b5b6000620005528482850162000512565b91505092915050565b600082825260208201905092915050565b7f45524332303a206d696e7420746f20746865207a65726f206164647265737300600082015250565b6000620005a4601f836200055b565b9150620005b1826200056c565b602082019050919050565b60006020820190508181036000830152620005d78162000595565b9050919050565b7f4e487b7100000000000000000000000000000000000000000000000000000000600052601160045260246000fd5b60006200061a82620004ee565b91506200062783620004ee565b9250827fffffffffffffffffffffffffffffffffffffffffffffffffffffffffffffffff038211156200065f576200065e620005de565b5b828201905092915050565b6200067581620004ee565b82525050565b60006020820190506200069260008301846200066a565b92915050565b7f4e487b7100000000000000000000000000000000000000000000000000000000600052602260045260246000fd5b60006002820490506001821680620006e057607f821691505b60208210811415620006f757620006f662000698565b5b50919050565b6125be806200070d6000396000f3fe608060405234801561001057600080fd5b50600436106101375760003560e01c806340c10f19116100b85780639dc29fac1161007c5780639dc29fac14610376578063a217fddf14610392578063a457c2d7146103b0578063a9059cbb146103e0578063d547741f14610410578063dd62ed3e1461042c57610137565b806340c10f19146102be57806370a08231146102da5780638da5cb5b1461030a57806391d148541461032857806395d89b411461035857610137565b8063248a9ca3116100ff578063248a9ca3146102085780632f2ff15d14610238578063313ce5671461025457806336568abe14610272578063395093511461028e57610137565b806301ffc9a71461013c57806306fdde031461016c578063095ea7b31461018a57806318160ddd146101ba57806323b872dd146101d8575b600080fd5b610156600480360381019061015191906117d6565b61045c565b604051610163919061181e565b60405180910390f35b6101746104d6565b60405161018191906118d2565b60405180910390f35b6101a4600480360381019061019f9190611988565b610568565b6040516101b1919061181e565b60405180910390f35b6101c261058b565b6040516101cf91906119d7565b60405180910390f35b6101f260048036038101906101ed91906119f2565b610595565b6040516101ff919061181e565b60405180910390f35b610222600480360381019061021d9190611a7b565b6105c4565b60405161022f9190611ab7565b60405180910390f35b610252600480360381019061024d9190611ad2565b6105e4565b005b61025c610605565b6040516102699190611b2e565b60405180910390f35b61028c60048036038101906102879190611ad2565b61060e565b005b6102a860048036038101906102a39190611988565b610691565b6040516102b5919061181e565b60405180910390f35b6102d860048036038101906102d39190611988565b6106c8565b005b6102f460048036038101906102ef9190611b49565b610774565b60405161030191906119d7565b60405180910390f35b6103126107bc565b60405161031f9190611b85565b60405180910390f35b610342600480360381019061033d9190611ad2565b6107e2565b60405161034f919061181e565b60405180910390f35b61036061084d565b60405161036d91906118d2565b60405180910390f35b610390600480360381019061038b9190611988565b6108df565b005b61039a6108fb565b6040516103a79190611ab7565b60405180910390f35b6103ca60048036038101906103c59190611988565b610902565b6040516103d7919061181e565b60405180910390f35b6103fa60048036038101906103f59190611988565b610979565b604051610407919061181e565b60405180910390f35b61042a60048036038101906104259190611ad2565b61099c565b005b61044660048036038101906104419190611ba0565b6109bd565b60405161045391906119d7565b60405180910390f35b60007f7965db0b000000000000000000000000000000000000000000000000000000007bffffffffffffffffffffffffffffffffffffffffffffffffffffffff1916827bffffffffffffffffffffffffffffffffffffffffffffffffffffffff191614806104cf57506104ce82610a44565b5b9050919050565b6060600380546104e590611c0f565b80601f016020809104026020016040519081016040528092919081815260200182805461051190611c0f565b801561055e5780601f106105335761010080835404028352916020019161055e565b820191906000526020600020905b81548152906001019060200180831161054157829003601f168201915b5050505050905090565b600080610573610aae565b9050610580818585610ab6565b600191505092915050565b6000600254905090565b6000806105a0610aae565b90506105ad858285610c81565b6105b8858585610d0d565b60019150509392505050565b600060056000838152602001908152602001600020600101549050919050565b6105ed826105c4565b6105f681610f85565b6106008383610f99565b505050565b60006012905090565b610616610aae565b73ffffffffffffffffffffffffffffffffffffffff168173ffffffffffffffffffffffffffffffffffffffff1614610683576040517f08c379a000000000000000000000000000000000000000000000000000000000815260040161067a90611cb3565b60405180910390fd5b61068d828261107a565b5050565b60008061069c610aae565b90506106bd8185856106ae85896109bd565b6106b89190611d02565b610ab6565b600191505092915050565b6000801b6106d581610f85565b600660009054906101000a900473ffffffffffffffffffffffffffffffffffffffff1673ffffffffffffffffffffffffffffffffffffffff163373ffffffffffffffffffffffffffffffffffffffff1614610765576040517f08c379a000000000000000000000000000000000000000000000000000000000815260040161075c90611da4565b60405180910390fd5b61076f838361115c565b505050565b60008060008373ffffffffffffffffffffffffffffffffffffffff1673ffffffffffffffffffffffffffffffffffffffff168152602001908152602001600020549050919050565b600660009054906101000a900473ffffffffffffffffffffffffffffffffffffffff1681565b60006005600084815260200190815260200160002060000160008373ffffffffffffffffffffffffffffffffffffffff1673ffffffffffffffffffffffffffffffffffffffff16815260200190815260200160002060009054906101000a900460ff16905092915050565b60606004805461085c90611c0f565b80601f016020809104026020016040519081016040528092919081815260200182805461088890611c0f565b80156108d55780601f106108aa576101008083540402835291602001916108d5565b820191906000526020600020905b8154815290600101906020018083116108b857829003601f168201915b5050505050905090565b6000801b6108ec81610f85565b6108f683836112b3565b505050565b6000801b81565b60008061090d610aae565b9050600061091b82866109bd565b905083811015610960576040517f08c379a000000000000000000000000000000000000000000000000000000000815260040161095790611e36565b60405180910390fd5b61096d8286868403610ab6565b60019250505092915050565b600080610984610aae565b9050610991818585610d0d565b600191505092915050565b6109a5826105c4565b6109ae81610f85565b6109b8838361107a565b505050565b6000600160008473ffffffffffffffffffffffffffffffffffffffff1673ffffffffffffffffffffffffffffffffffffffff16815260200190815260200160002060008373ffffffffffffffffffffffffffffffffffffffff1673ffffffffffffffffffffffffffffffffffffffff16815260200190815260200160002054905092915050565b60007f01ffc9a7000000000000000000000000000000000000000000000000000000007bffffffffffffffffffffffffffffffffffffffffffffffffffffffff1916827bffffffffffffffffffffffffffffffffffffffffffffffffffffffff1916149050919050565b600033905090565b600073ffffffffffffffffffffffffffffffffffffffff168373ffffffffffffffffffffffffffffffffffffffff161415610b26576040517f08c379a0000000000000000000000000000000000000000000000000000000008152600401610b1d90611ec8565b60405180910390fd5b600073ffffffffffffffffffffffffffffffffffffffff168273ffffffffffffffffffffffffffffffffffffffff161415610b96576040517f08c379a0000000000000000000000000000000000000000000000000000000008152600401610b8d90611f5a565b60405180910390fd5b80600160008573ffffffffffffffffffffffffffffffffffffffff1673ffffffffffffffffffffffffffffffffffffffff16815260200190815260200160002060008473ffffffffffffffffffffffffffffffffffffffff1673ffffffffffffffffffffffffffffffffffffffff168152602001908152602001600020819055508173ffffffffffffffffffffffffffffffffffffffff168373ffffffffffffffffffffffffffffffffffffffff167f8c5be1e5ebec7d5bd14f71427d1e84f3dd0314c0f7b2291e5b200ac8c7c3b92583604051610c7491906119d7565b60405180910390a3505050565b6000610c8d84846109bd565b90507fffffffffffffffffffffffffffffffffffffffffffffffffffffffffffffffff8114610d075781811015610cf9576040517f08c379a0000000000000000000000000000000000000000000000000000000008152600401610cf090611fc6565b60405180910390fd5b610d068484848403610ab6565b5b50505050565b600073ffffffffffffffffffffffffffffffffffffffff168373ffffffffffffffffffffffffffffffffffffffff161415610d7d576040517f08c379a0000000000000000000000000000000000000000000000000000000008152600401610d7490612058565b60405180910390fd5b600073ffffffffffffffffffffffffffffffffffffffff168273ffffffffffffffffffffffffffffffffffffffff161415610ded576040517f08c379a0000000000000000000000000000000000000000000000000000000008152600401610de4906120ea565b60405180910390fd5b610df8838383611481565b60008060008573ffffffffffffffffffffffffffffffffffffffff1673ffffffffffffffffffffffffffffffffffffffff16815260200190815260200160002054905081811015610e7e576040517f08c379a0000000000000000000000000000000000000000000000000000000008152600401610e759061217c565b60405180910390fd5b8181036000808673ffffffffffffffffffffffffffffffffffffffff1673ffffffffffffffffffffffffffffffffffffffff16815260200190815260200160002081905550816000808573ffffffffffffffffffffffffffffffffffffffff1673ffffffffffffffffffffffffffffffffffffffff168152602001908152602001600020600082825401925050819055508273ffffffffffffffffffffffffffffffffffffffff168473ffffffffffffffffffffffffffffffffffffffff167fddf252ad1be2c89b69c2b068fc378daa952ba7f163c4a11628f55a4df523b3ef84604051610f6c91906119d7565b60405180910390a3610f7f848484611486565b50505050565b610f9681610f91610aae565b61148b565b50565b610fa382826107e2565b6110765760016005600084815260200190815260200160002060000160008373ffffffffffffffffffffffffffffffffffffffff1673ffffffffffffffffffffffffffffffffffffffff16815260200190815260200160002060006101000a81548160ff02191690831515021790555061101b610aae565b73ffffffffffffffffffffffffffffffffffffffff168173ffffffffffffffffffffffffffffffffffffffff16837f2f8788117e7eff1d82e926ec794901d17c78024a50270940304540a733656f0d60405160405180910390a45b5050565b61108482826107e2565b156111585760006005600084815260200190815260200160002060000160008373ffffffffffffffffffffffffffffffffffffffff1673ffffffffffffffffffffffffffffffffffffffff16815260200190815260200160002060006101000a81548160ff0219169083151502179055506110fd610aae565b73ffffffffffffffffffffffffffffffffffffffff168173ffffffffffffffffffffffffffffffffffffffff16837ff6391f5c32d9c69d2a47ea670b442974b53935d1edc7fd64eb21e047a839171b60405160405180910390a45b5050565b600073ffffffffffffffffffffffffffffffffffffffff168273ffffffffffffffffffffffffffffffffffffffff1614156111cc576040517f08c379a00000000000000000000000000000000000000000000000000000000081526004016111c3906121e8565b60405180910390fd5b6111d860008383611481565b80600260008282546111ea9190611d02565b92505081905550806000808473ffffffffffffffffffffffffffffffffffffffff1673ffffffffffffffffffffffffffffffffffffffff168152602001908152602001600020600082825401925050819055508173ffffffffffffffffffffffffffffffffffffffff16600073ffffffffffffffffffffffffffffffffffffffff167fddf252ad1be2c89b69c2b068fc378daa952ba7f163c4a11628f55a4df523b3ef8360405161129b91906119d7565b60405180910390a36112af60008383611486565b5050565b600073ffffffffffffffffffffffffffffffffffffffff168273ffffffffffffffffffffffffffffffffffffffff161415611323576040517f08c379a000000000000000000000000000000000000000000000000000000000815260040161131a9061227a565b60405180910390fd5b61132f82600083611481565b60008060008473ffffffffffffffffffffffffffffffffffffffff1673ffffffffffffffffffffffffffffffffffffffff168152602001908152602001600020549050818110156113b5576040517f08c379a00000000000000000000000000000000000000000000000000000000081526004016113ac9061230c565b60405180910390fd5b8181036000808573ffffffffffffffffffffffffffffffffffffffff1673ffffffffffffffffffffffffffffffffffffffff1681526020019081526020016000208190555081600260008282540392505081905550600073ffffffffffffffffffffffffffffffffffffffff168373ffffffffffffffffffffffffffffffffffffffff167fddf252ad1be2c89b69c2b068fc378daa952ba7f163c4a11628f55a4df523b3ef8460405161146891906119d7565b60405180910390a361147c83600084611486565b505050565b505050565b505050565b61149582826107e2565b61150c576114a281611510565b6114b08360001c602061153d565b6040516020016114c1929190612400565b6040516020818303038152906040526040517f08c379a000000000000000000000000000000000000000000000000000000000815260040161150391906118d2565b60405180910390fd5b5050565b60606115368273ffffffffffffffffffffffffffffffffffffffff16601460ff1661153d565b9050919050565b606060006002836002611550919061243a565b61155a9190611d02565b67ffffffffffffffff81111561157357611572612494565b5b6040519080825280601f01601f1916602001820160405280156115a55781602001600182028036833780820191505090505b5090507f3000000000000000000000000000000000000000000000000000000000000000816000815181106115dd576115dc6124c3565b5b60200101907effffffffffffffffffffffffffffffffffffffffffffffffffffffffffffff1916908160001a9053507f780000000000000000000000000000000000000000000000000000000000000081600181518110611641576116406124c3565b5b60200101907effffffffffffffffffffffffffffffffffffffffffffffffffffffffffffff1916908160001a90535060006001846002611681919061243a565b61168b9190611d02565b90505b600181111561172b577f3031323334353637383961626364656600000000000000000000000000000000600f8616601081106116cd576116cc6124c3565b5b1a60f81b8282815181106116e4576116e36124c3565b5b60200101907effffffffffffffffffffffffffffffffffffffffffffffffffffffffffffff1916908160001a905350600485901c945080611724906124f2565b905061168e565b506000841461176f576040517f08c379a000000000000000000000000000000000000000000000000000000000815260040161176690612568565b60405180910390fd5b8091505092915050565b600080fd5b60007fffffffff0000000000000000000000000000000000000000000000000000000082169050919050565b6117b38161177e565b81146117be57600080fd5b50565b6000813590506117d0816117aa565b92915050565b6000602082840312156117ec576117eb611779565b5b60006117fa848285016117c1565b91505092915050565b60008115159050919050565b61181881611803565b82525050565b6000602082019050611833600083018461180f565b92915050565b600081519050919050565b600082825260208201905092915050565b60005b83811015611873578082015181840152602081019050611858565b83811115611882576000848401525b50505050565b6000601f19601f8301169050919050565b60006118a482611839565b6118ae8185611844565b93506118be818560208601611855565b6118c781611888565b840191505092915050565b600060208201905081810360008301526118ec8184611899565b905092915050565b600073ffffffffffffffffffffffffffffffffffffffff82169050919050565b600061191f826118f4565b9050919050565b61192f81611914565b811461193a57600080fd5b50565b60008135905061194c81611926565b92915050565b6000819050919050565b61196581611952565b811461197057600080fd5b50565b6000813590506119828161195c565b92915050565b6000806040838503121561199f5761199e611779565b5b60006119ad8582860161193d565b92505060206119be85828601611973565b9150509250929050565b6119d181611952565b82525050565b60006020820190506119ec60008301846119c8565b92915050565b600080600060608486031215611a0b57611a0a611779565b5b6000611a198682870161193d565b9350506020611a2a8682870161193d565b9250506040611a3b86828701611973565b9150509250925092565b6000819050919050565b611a5881611a45565b8114611a6357600080fd5b50565b600081359050611a7581611a4f565b92915050565b600060208284031215611a9157611a90611779565b5b6000611a9f84828501611a66565b91505092915050565b611ab181611a45565b82525050565b6000602082019050611acc6000830184611aa8565b92915050565b60008060408385031215611ae957611ae8611779565b5b6000611af785828601611a66565b9250506020611b088582860161193d565b9150509250929050565b600060ff82169050919050565b611b2881611b12565b82525050565b6000602082019050611b436000830184611b1f565b92915050565b600060208284031215611b5f57611b5e611779565b5b6000611b6d8482850161193d565b91505092915050565b611b7f81611914565b82525050565b6000602082019050611b9a6000830184611b76565b92915050565b60008060408385031215611bb757611bb6611779565b5b6000611bc58582860161193d565b9250506020611bd68582860161193d565b9150509250929050565b7f4e487b7100000000000000000000000000000000000000000000000000000000600052602260045260246000fd5b60006002820490506001821680611c2757607f821691505b60208210811415611c3b57611c3a611be0565b5b50919050565b7f416363657373436f6e74726f6c3a2063616e206f6e6c792072656e6f756e636560008201527f20726f6c657320666f722073656c660000000000000000000000000000000000602082015250565b6000611c9d602f83611844565b9150611ca882611c41565b604082019050919050565b60006020820190508181036000830152611ccc81611c90565b9050919050565b7f4e487b7100000000000000000000000000000000000000000000000000000000600052601160045260246000fd5b6000611d0d82611952565b9150611d1883611952565b9250827fffffffffffffffffffffffffffffffffffffffffffffffffffffffffffffffff03821115611d4d57611d4c611cd3565b5b828201905092915050565b7f4163636573732064656e69656421000000000000000000000000000000000000600082015250565b6000611d8e600e83611844565b9150611d9982611d58565b602082019050919050565b60006020820190508181036000830152611dbd81611d81565b9050919050565b7f45524332303a2064656372656173656420616c6c6f77616e63652062656c6f7760008201527f207a65726f000000000000000000000000000000000000000000000000000000602082015250565b6000611e20602583611844565b9150611e2b82611dc4565b604082019050919050565b60006020820190508181036000830152611e4f81611e13565b9050919050565b7f45524332303a20617070726f76652066726f6d20746865207a65726f2061646460008201527f7265737300000000000000000000000000000000000000000000000000000000602082015250565b6000611eb2602483611844565b9150611ebd82611e56565b604082019050919050565b60006020820190508181036000830152611ee181611ea5565b9050919050565b7f45524332303a20617070726f766520746f20746865207a65726f20616464726560008201527f7373000000000000000000000000000000000000000000000000000000000000602082015250565b6000611f44602283611844565b9150611f4f82611ee8565b604082019050919050565b60006020820190508181036000830152611f7381611f37565b9050919050565b7f45524332303a20696e73756666696369656e7420616c6c6f77616e6365000000600082015250565b6000611fb0601d83611844565b9150611fbb82611f7a565b602082019050919050565b60006020820190508181036000830152611fdf81611fa3565b9050919050565b7f45524332303a207472616e736665722066726f6d20746865207a65726f20616460008201527f6472657373000000000000000000000000000000000000000000000000000000602082015250565b6000612042602583611844565b915061204d82611fe6565b604082019050919050565b6000602082019050818103600083015261207181612035565b9050919050565b7f45524332303a207472616e7366657220746f20746865207a65726f206164647260008201527f6573730000000000000000000000000000000000000000000000000000000000602082015250565b60006120d4602383611844565b91506120df82612078565b604082019050919050565b60006020820190508181036000830152612103816120c7565b9050919050565b7f45524332303a207472616e7366657220616d6f756e742065786365656473206260008201527f616c616e63650000000000000000000000000000000000000000000000000000602082015250565b6000612166602683611844565b91506121718261210a565b604082019050919050565b6000602082019050818103600083015261219581612159565b9050919050565b7f45524332303a206d696e7420746f20746865207a65726f206164647265737300600082015250565b60006121d2601f83611844565b91506121dd8261219c565b602082019050919050565b60006020820190508181036000830152612201816121c5565b9050919050565b7f45524332303a206275726e2066726f6d20746865207a65726f2061646472657360008201527f7300000000000000000000000000000000000000000000000000000000000000602082015250565b6000612264602183611844565b915061226f82612208565b604082019050919050565b6000602082019050818103600083015261229381612257565b9050919050565b7f45524332303a206275726e20616d6f756e7420657863656564732062616c616e60008201527f6365000000000000000000000000000000000000000000000000000000000000602082015250565b60006122f6602283611844565b91506123018261229a565b604082019050919050565b60006020820190508181036000830152612325816122e9565b9050919050565b600081905092915050565b7f416363657373436f6e74726f6c3a206163636f756e7420000000000000000000600082015250565b600061236d60178361232c565b915061237882612337565b601782019050919050565b600061238e82611839565b612398818561232c565b93506123a8818560208601611855565b80840191505092915050565b7f206973206d697373696e6720726f6c6520000000000000000000000000000000600082015250565b60006123ea60118361232c565b91506123f5826123b4565b601182019050919050565b600061240b82612360565b91506124178285612383565b9150612422826123dd565b915061242e8284612383565b91508190509392505050565b600061244582611952565b915061245083611952565b9250817fffffffffffffffffffffffffffffffffffffffffffffffffffffffffffffffff048311821515161561248957612488611cd3565b5b828202905092915050565b7f4e487b7100000000000000000000000000000000000000000000000000000000600052604160045260246000fd5b7f4e487b7100000000000000000000000000000000000000000000000000000000600052603260045260246000fd5b60006124fd82611952565b9150600082141561251157612510611cd3565b5b600182039050919050565b7f537472696e67733a20686578206c656e67746820696e73756666696369656e74600082015250565b6000612552602083611844565b915061255d8261251c565b602082019050919050565b6000602082019050818103600083015261258181612545565b905091905056fea2646970667358221220e35b2d1a9958eb438706677aeb8887e7b8dc4a14be5c2e5a7ffa225a6082298d64736f6c63430008090033",
  "linkReferences": {},
  "deployedLinkReferences": {}
}